{
  "contractName": "Voting",
  "abi": [
    {
      "constant": true,
      "inputs": [
        {
          "name": "",
          "type": "bytes32"
        }
      ],
      "name": "votesReceived",
      "outputs": [
        {
          "name": "",
          "type": "uint8"
        }
      ],
      "payable": false,
      "stateMutability": "view",
      "type": "function"
    },
    {
      "constant": true,
      "inputs": [
        {
          "name": "",
          "type": "uint256"
        }
      ],
      "name": "candidateList",
      "outputs": [
        {
          "name": "",
          "type": "bytes32"
        }
      ],
      "payable": false,
      "stateMutability": "view",
      "type": "function"
    },
    {
      "inputs": [
        {
          "name": "candidateNames",
          "type": "bytes32[]"
        }
      ],
      "payable": false,
      "stateMutability": "nonpayable",
      "type": "constructor"
    },
    {
      "constant": true,
      "inputs": [
        {
          "name": "candidate",
          "type": "bytes32"
        }
      ],
      "name": "totalVotesFor",
      "outputs": [
        {
          "name": "",
          "type": "uint8"
        }
      ],
      "payable": false,
      "stateMutability": "view",
      "type": "function"
    },
    {
      "constant": false,
      "inputs": [
        {
          "name": "candidate",
          "type": "bytes32"
        }
      ],
      "name": "voteForCandidate",
      "outputs": [],
      "payable": false,
      "stateMutability": "nonpayable",
      "type": "function"
    },
    {
      "constant": true,
      "inputs": [
        {
          "name": "candidate",
          "type": "bytes32"
        }
      ],
      "name": "validCandidate",
      "outputs": [
        {
          "name": "",
          "type": "bool"
        }
      ],
      "payable": false,
      "stateMutability": "view",
      "type": "function"
    }
  ],
  "bytecode": "0x6060604052341561000f57600080fd5b6040516103da3803806103da833981016040528080518201919050508060019080519060200190610041929190610048565b50506100c0565b82805482825590600052602060002090810192821561008a579160200282015b82811115610089578251829060001916905591602001919060010190610068565b5b509050610097919061009b565b5090565b6100bd91905b808211156100b95760008160009055506001016100a1565b5090565b90565b61030b806100cf6000396000f30060606040526004361061006d576000357c0100000000000000000000000000000000000000000000000000000000900463ffffffff1680632f265cf714610072578063392e6678146100b35780637021939f146100f2578063b13c744b14610133578063cc9ab26714610172575b600080fd5b341561007d57600080fd5b610097600480803560001916906020019091905050610199565b604051808260ff1660ff16815260200191505060405180910390f35b34156100be57600080fd5b6100d86004808035600019169060200190919050506101de565b604051808215151515815260200191505060405180910390f35b34156100fd57600080fd5b61011760048080356000191690602001909190505061023e565b604051808260ff1660ff16815260200191505060405180910390f35b341561013e57600080fd5b610154600480803590602001909190505061025e565b60405180826000191660001916815260200191505060405180910390f35b341561017d57600080fd5b610197600480803560001916906020019091905050610282565b005b60006101a4826101de565b15156101af57600080fd5b600080836000191660001916815260200190815260200160002060009054906101000a900460ff169050919050565b600080600090505b60018054905081101561023357826000191660018281548110151561020757fe5b9060005260206000209001546000191614156102265760019150610238565b80806001019150506101e6565b600091505b50919050565b60006020528060005260406000206000915054906101000a900460ff1681565b60018181548110151561026d57fe5b90600052602060002090016000915090505481565b61028b816101de565b151561029657600080fd5b6001600080836000191660001916815260200190815260200160002060008282829054906101000a900460ff160192506101000a81548160ff021916908360ff160217905550505600a165627a7a7230582054dba567b391c3507d90e4a12ac06b6db74103f3f3e68f4ecd5611275b3c73160029",
  "source": "pragma solidity ^0.4.18;\n// We have to specify what version of compiler this code will compile with\n\ncontract Voting {\n  mapping (bytes32 => uint8) public votesReceived;\n  \n  bytes32[] public candidateList;\n\n  function Voting(bytes32[] candidateNames) public {\n    candidateList = candidateNames;\n  }\n\n  function totalVotesFor(bytes32 candidate) view public returns (uint8) {\n    require(validCandidate(candidate));\n    return votesReceived[candidate];\n  }\n\n  function voteForCandidate(bytes32 candidate) public {\n    require(validCandidate(candidate));\n    votesReceived[candidate] += 1;\n  }\n\n  function validCandidate(bytes32 candidate) view public returns (bool) {\n    for(uint i = 0; i < candidateList.length; i++) {\n      if (candidateList[i] == candidate) {\n        return true;\n      }\n    }\n    return false;\n  }\n}\n",
  "sourcePath": "/home/lauro/code/voting-dapp/contracts/Voting.sol",
  "compiler": {
    "name": "solc",
    "version": "0.4.19+commit.c4cbbb05.Emscripten.clang"
  },
  "schemaVersion": "1.0.1",
  "updatedAt": "2018-03-02T01:10:07.635Z"
}